:0400000055EF00F0C8
:100008002982FACF05F0FBCF06F0E9CF07F0EACF57
:1000180008F0E1CF09F0E2CF0AF0D9CF0BF0DACF40
:100028000CF0F3CF0DF0F4CF0EF0F6CF0FF0F7CFC2
:1000380010F0F8CF11F0F5CF12F0A4A014D08C7402
:10004800130E016E000E026E57EC00F01350D8A488
:1000580002D0000E286E1304D8A402D0010E286E18
:1000680096EC01F0A49012C0F5FF11C0F8FF10C083
:10007800F7FF0FC0F6FF0EC0F4FF0DC0F3FF0CC072
:10008800DAFF0BC0D9FF0AC0E2FF09C0E1FF08C0D0
:10009800EAFF07C0E9FF06C0FBFF05C0FAFF299287
:1000A800110082EF01F060AEFED720EE07F001509C
:1000B800D9260250DA226DCFDFFF20EE06F001507C
:1000C800D9260250DA226CCFDFFF20EE05F001506E
:1000D800D9260250DA226BCFDFFF20EE04F0015060
:1000E800D9260250DA226ACFDFFF20EE03F0015052
:1000F800D9260250DA2269CFDFFF20EE02F0015044
:10010800D9260250DA2268CFDFFF20EE01F0015035
:10011800D9260250DA2267CFDFFF01C0D9FF02C01B
:10012800DAFF66CFDFFF6150036E046AD8900336AA
:100138000436D89003360436D8900336043620EEB9
:1001480008F00150D9260250DA2203C0DEFF04C0AD
:10015800DDFF20EE08F00150D9260250DA2262CFE6
:1001680003F0050E046ED8900332042EFCD703501A
:10017800DE12000EDD1220EE0AF00150D9260250E0
:10018800DA2265500F0BDF6E609E120093949386FF
:100198006F8E6EAE6EAC02D06EBAFBD7739A709E3D
:1001A800709C709A70987096709470927080718E2E
:1001B800718C719A71987186719471827190729430
:1001C80072927280779E779C609C608A000E216E86
:1001D8000B0E206E070E236E226820C01EF021C071
:1001E8001FF01F341F321E321F341F321E321F34BD
:1001F8001F321E321E500F01006F2038E846E00BF8
:100208000F01016F22C01EF023C01FF01F341F32E0
:100218001E321F341F321E321F341F321E321E5030
:100228000F01186F2238E846E00B0F01196F0F0114
:1002380001970D01D4816F9E6F9C6F9A6EAE12006C
:100248006EAC12006EAA1200F9D77BEC01F092ECAA
:1002580001F0CAEC00F0D09EF28EF28CA3805DEC27
:1002680001F08DEC01F06EEC01F01EC024F01FC00F
:1002780025F088EC01F06EEC01F01EC026F01FC0DE
:1002880027F02850D8B425BE0ED0255004E13C0EE6
:10029800245CD8A008D027BE06D0275007E13C0E22
:1002A800265CD8B003D08C908C82DBD78C808C9263
:1002B800D8D7C180C192C184C186C08EC198C19A65
:1002C800C09AC088C096C094C082C0909280928222
:1002D800C2801200C282C2B2FED7C3CF20F0216A08
:1002E800C450212620C01EF021C01FF01200D38860
:1002F800D38AD38CD390D3929B8C1200286A2990EE
:100308002992000129EF01F0C250C30B0409C26E03
:100318001200C294C296C298C29A12009590959201
:0803280095941200609E120082
:020000040020DA
:08000000FFFFFFFFFFFFFFFF00
:020000040030CA
:0E000000FF08191EFF8085FF3FC03FE03F4014
:00000001FF
